{
  "contractName": "BasicMath",
  "abi": [
    {
      "inputs": [
        {
          "internalType": "int256",
          "name": "x",
          "type": "int256"
        },
        {
          "internalType": "int256",
          "name": "y",
          "type": "int256"
        }
      ],
      "name": "add",
      "outputs": [
        {
          "internalType": "int256",
          "name": "",
          "type": "int256"
        }
      ],
      "stateMutability": "pure",
      "type": "function"
    },
    {
      "inputs": [
        {
          "internalType": "int256",
          "name": "x",
          "type": "int256"
        },
        {
          "internalType": "int256",
          "name": "y",
          "type": "int256"
        }
      ],
      "name": "subtract",
      "outputs": [
        {
          "internalType": "int256",
          "name": "",
          "type": "int256"
        }
      ],
      "stateMutability": "pure",
      "type": "function"
    },
    {
      "inputs": [
        {
          "internalType": "int256",
          "name": "x",
          "type": "int256"
        },
        {
          "internalType": "int256",
          "name": "y",
          "type": "int256"
        }
      ],
      "name": "divide",
      "outputs": [
        {
          "internalType": "int256",
          "name": "",
          "type": "int256"
        }
      ],
      "stateMutability": "pure",
      "type": "function"
    },
    {
      "inputs": [
        {
          "internalType": "int256",
          "name": "x",
          "type": "int256"
        },
        {
          "internalType": "int256",
          "name": "y",
          "type": "int256"
        }
      ],
      "name": "multiply",
      "outputs": [
        {
          "internalType": "int256",
          "name": "",
          "type": "int256"
        }
      ],
      "stateMutability": "pure",
      "type": "function"
    },
    {
      "inputs": [
        {
          "internalType": "int256[]",
          "name": "data",
          "type": "int256[]"
        }
      ],
      "name": "sum",
      "outputs": [
        {
          "internalType": "int256",
          "name": "",
          "type": "int256"
        }
      ],
      "stateMutability": "pure",
      "type": "function"
    }
  ],
  "bytecode": "0x608060405234801561001057600080fd5b5061097a806100206000396000f3fe608060405234801561001057600080fd5b50600436106100575760003560e01c80633c4308a81461005c57806360cb66d01461008c578063a5f3c23b146100bc578063b93ea812146100ec578063f59842361461011c575b600080fd5b610076600480360381019061007191906102c7565b61014c565b6040516100839190610316565b60405180910390f35b6100a660048036038101906100a1919061048a565b610162565b6040516100b39190610316565b60405180910390f35b6100d660048036038101906100d191906102c7565b6101f9565b6040516100e39190610316565b60405180910390f35b610106600480360381019061010191906102c7565b61020f565b6040516101139190610316565b60405180910390f35b610136600480360381019061013191906102c7565b610225565b6040516101439190610316565b60405180910390f35b6000818361015a9190610502565b905092915050565b6000808251116101a7576040517f08c379a000000000000000000000000000000000000000000000000000000000815260040161019e90610676565b60405180910390fd5b6000805b83518110156101ef578381815181106101c7576101c6610696565b5b6020026020010151826101da91906106c5565b915080806101e790610763565b9150506101ab565b5080915050919050565b6000818361020791906106c5565b905092915050565b6000818361021d91906107ab565b905092915050565b6000808203610269576040517f08c379a00000000000000000000000000000000000000000000000000000000081526004016102609061088b565b60405180910390fd5b818361027591906108da565b905092915050565b6000604051905090565b600080fd5b600080fd5b6000819050919050565b6102a481610291565b81146102af57600080fd5b50565b6000813590506102c18161029b565b92915050565b600080604083850312156102de576102dd610287565b5b60006102ec858286016102b2565b92505060206102fd858286016102b2565b9150509250929050565b61031081610291565b82525050565b600060208201905061032b6000830184610307565b92915050565b600080fd5b6000601f19601f8301169050919050565b7f4e487b7100000000000000000000000000000000000000000000000000000000600052604160045260246000fd5b61037f82610336565b810181811067ffffffffffffffff8211171561039e5761039d610347565b5b80604052505050565b60006103b161027d565b90506103bd8282610376565b919050565b600067ffffffffffffffff8211156103dd576103dc610347565b5b602082029050602081019050919050565b600080fd5b6000610406610401846103c2565b6103a7565b90508083825260208201905060208402830185811115610429576104286103ee565b5b835b81811015610452578061043e88826102b2565b84526020840193505060208101905061042b565b5050509392505050565b600082601f83011261047157610470610331565b5b81356104818482602086016103f3565b91505092915050565b6000602082840312156104a05761049f610287565b5b600082013567ffffffffffffffff8111156104be576104bd61028c565b5b6104ca8482850161045c565b91505092915050565b7f4e487b7100000000000000000000000000000000000000000000000000000000600052601160045260246000fd5b600061050d82610291565b915061051883610291565b9250827f7fffffffffffffffffffffffffffffffffffffffffffffffffffffffffffffff0482116000841360008413161615610557576105566104d3565b5b817f80000000000000000000000000000000000000000000000000000000000000000583126000841260008413161615610594576105936104d3565b5b827f800000000000000000000000000000000000000000000000000000000000000005821260008413600084121616156105d1576105d06104d3565b5b827f7fffffffffffffffffffffffffffffffffffffffffffffffffffffffffffffff058212600084126000841216161561060e5761060d6104d3565b5b828202905092915050565b600082825260208201905092915050565b7f456d707479206172726179206973206e6f742076616c69640000000000000000600082015250565b6000610660601883610619565b915061066b8261062a565b602082019050919050565b6000602082019050818103600083015261068f81610653565b9050919050565b7f4e487b7100000000000000000000000000000000000000000000000000000000600052603260045260246000fd5b60006106d082610291565b91506106db83610291565b9250817f7fffffffffffffffffffffffffffffffffffffffffffffffffffffffffffffff03831360008312151615610716576107156104d3565b5b817f800000000000000000000000000000000000000000000000000000000000000003831260008312161561074e5761074d6104d3565b5b828201905092915050565b6000819050919050565b600061076e82610759565b91507fffffffffffffffffffffffffffffffffffffffffffffffffffffffffffffffff82036107a05761079f6104d3565b5b600182019050919050565b60006107b682610291565b91506107c183610291565b9250827f8000000000000000000000000000000000000000000000000000000000000000018212600084121516156107fc576107fb6104d3565b5b827f7fffffffffffffffffffffffffffffffffffffffffffffffffffffffffffffff018213600084121615610834576108336104d3565b5b828203905092915050565b7f446976696465206279207a65726f000000000000000000000000000000000000600082015250565b6000610875600e83610619565b91506108808261083f565b602082019050919050565b600060208201905081810360008301526108a481610868565b9050919050565b7f4e487b7100000000000000000000000000000000000000000000000000000000600052601260045260246000fd5b60006108e582610291565b91506108f083610291565b925082610900576108ff6108ab565b5b600160000383147f800000000000000000000000000000000000000000000000000000000000000083141615610939576109386104d3565b5b82820590509291505056fea2646970667358221220828416f5fdd74962a5b1f03e54fa22a59f9c90f91cc5010e25b219408f1dded264736f6c634300080d0033",
  "immutableReferences": {},
  "source": "// SPDX-License-Identifier: MIT\npragma solidity >=0.4.22 <0.9.0;\n\ncontract BasicMath {\n    function add(int256 x, int256 y) public pure returns (int256) {\n        return x + y;\n    }\n\n    function subtract(int256 x, int256 y) public pure returns (int256) {\n        return x - y;\n    }\n\n    function divide(int256 x, int256 y) public pure returns (int256) {\n        require(y != 0, \"Divide by zero\");\n        return x / y;\n    }\n\n    function multiply(int256 x, int256 y) public pure returns (int256) {\n        return x * y;\n    }\n\n    function sum(int256[] memory data) public pure returns (int256) {\n        require(data.length > 0, \"Empty array is not valid\");\n        int256 sumary = 0;\n        for (uint256 i = 0; i < data.length; i++) {\n            sumary += data[i];\n        }\n        return sumary;\n    }\n}\n",
  "sourcePath": "C:\\Users\\Hp\\dev\\learning\\jquery-learning\\solidity-tutorial\\contracts\\BasicMath.sol",
  "compiler": {
    "name": "solc",
    "version": "0.8.13+commit.abaa5c0e.Emscripten.clang"
  },
  "schemaVersion": "3.4.11",
  "updatedAt": "2023-02-16T15:37:20.537Z",
  "devdoc": {
    "kind": "dev",
    "methods": {},
    "version": 1
  },
  "userdoc": {
    "kind": "user",
    "methods": {},
    "version": 1
  }
}