{
  "contractName": "BasicMath",
  "abi": [
    {
      "inputs": [
        {
          "internalType": "int256",
          "name": "x",
          "type": "int256"
        },
        {
          "internalType": "int256",
          "name": "y",
          "type": "int256"
        }
      ],
      "name": "add",
      "outputs": [
        {
          "internalType": "int256",
          "name": "",
          "type": "int256"
        }
      ],
      "stateMutability": "pure",
      "type": "function",
      "constant": true
    },
    {
      "inputs": [
        {
          "internalType": "int256",
          "name": "x",
          "type": "int256"
        },
        {
          "internalType": "int256",
          "name": "y",
          "type": "int256"
        }
      ],
      "name": "subtract",
      "outputs": [
        {
          "internalType": "int256",
          "name": "",
          "type": "int256"
        }
      ],
      "stateMutability": "pure",
      "type": "function",
      "constant": true
    },
    {
      "inputs": [
        {
          "internalType": "int256",
          "name": "x",
          "type": "int256"
        },
        {
          "internalType": "int256",
          "name": "y",
          "type": "int256"
        }
      ],
      "name": "divide",
      "outputs": [
        {
          "internalType": "int256",
          "name": "",
          "type": "int256"
        }
      ],
      "stateMutability": "pure",
      "type": "function",
      "constant": true
    },
    {
      "inputs": [
        {
          "internalType": "int256",
          "name": "x",
          "type": "int256"
        },
        {
          "internalType": "int256",
          "name": "y",
          "type": "int256"
        }
      ],
      "name": "multiply",
      "outputs": [
        {
          "internalType": "int256",
          "name": "",
          "type": "int256"
        }
      ],
      "stateMutability": "pure",
      "type": "function",
      "constant": true
    },
    {
      "inputs": [
        {
          "internalType": "int256[]",
          "name": "data",
          "type": "int256[]"
        }
      ],
      "name": "sum",
      "outputs": [
        {
          "internalType": "int256",
          "name": "",
          "type": "int256"
        }
      ],
      "stateMutability": "pure",
      "type": "function",
      "constant": true
    },
    {
      "inputs": [
        {
          "internalType": "int256[]",
          "name": "data",
          "type": "int256[]"
        }
      ],
      "name": "min",
      "outputs": [
        {
          "internalType": "int256",
          "name": "",
          "type": "int256"
        }
      ],
      "stateMutability": "pure",
      "type": "function",
      "constant": true
    },
    {
      "inputs": [
        {
          "internalType": "int256[]",
          "name": "data",
          "type": "int256[]"
        }
      ],
      "name": "max",
      "outputs": [
        {
          "internalType": "int256",
          "name": "",
          "type": "int256"
        }
      ],
      "stateMutability": "pure",
      "type": "function",
      "constant": true
    },
    {
      "inputs": [
        {
          "internalType": "int256[]",
          "name": "data",
          "type": "int256[]"
        }
      ],
      "name": "mean",
      "outputs": [
        {
          "internalType": "uint256",
          "name": "",
          "type": "uint256"
        }
      ],
      "stateMutability": "pure",
      "type": "function",
      "constant": true
    }
  ],
  "bytecode": "0x608060405234801561001057600080fd5b50610cbe806100206000396000f3fe608060405234801561001057600080fd5b50600436106100885760003560e01c8063b93ea8121161005b578063b93ea8121461014d578063ccc138141461017d578063ee059977146101ad578063f5984236146101dd57610088565b80633c4308a81461008d57806360cb66d0146100bd578063a5f3c23b146100ed578063af6afce51461011d575b600080fd5b6100a760048036038101906100a291906105b0565b61020d565b6040516100b491906105ff565b60405180910390f35b6100d760048036038101906100d29190610773565b610223565b6040516100e491906105ff565b60405180910390f35b610107600480360381019061010291906105b0565b6102dd565b60405161011491906105ff565b60405180910390f35b61013760048036038101906101329190610773565b6102f3565b60405161014491906105ff565b60405180910390f35b610167600480360381019061016291906105b0565b6103c5565b60405161017491906105ff565b60405180910390f35b61019760048036038101906101929190610773565b6103db565b6040516101a491906105ff565b60405180910390f35b6101c760048036038101906101c29190610773565b6104ad565b6040516101d491906107d5565b60405180910390f35b6101f760048036038101906101f291906105b0565b61050e565b60405161020491906105ff565b60405180910390f35b6000818361021b919061081f565b905092915050565b600080825111610268576040517f08c379a000000000000000000000000000000000000000000000000000000000815260040161025f90610993565b60405180910390fd5b60008260008151811061027e5761027d6109b3565b5b602002602001015190506000600190505b83518110156102d3578381815181106102ab576102aa6109b3565b5b6020026020010151826102be91906109e2565b915080806102cb90610a76565b91505061028f565b5080915050919050565b600081836102eb91906109e2565b905092915050565b600080825111610338576040517f08c379a000000000000000000000000000000000000000000000000000000000815260040161032f90610993565b60405180910390fd5b60008260008151811061034e5761034d6109b3565b5b602002602001015190506000600190505b83518110156103bb578184828151811061037c5761037b6109b3565b5b602002602001015112156103a85783818151811061039d5761039c6109b3565b5b602002602001015191505b80806103b390610a76565b91505061035f565b5080915050919050565b600081836103d39190610abe565b905092915050565b600080825111610420576040517f08c379a000000000000000000000000000000000000000000000000000000000815260040161041790610993565b60405180910390fd5b600082600081518110610436576104356109b3565b5b602002602001015190506000600190505b83518110156104a35781848281518110610464576104636109b3565b5b6020026020010151131561049057838181518110610485576104846109b3565b5b602002602001015191505b808061049b90610a76565b915050610447565b5080915050919050565b6000808251116104f2576040517f08c379a00000000000000000000000000000000000000000000000000000000081526004016104e990610993565b60405180910390fd5b81516104fd83610223565b6105079190610b81565b9050919050565b6000808203610552576040517f08c379a000000000000000000000000000000000000000000000000000000000815260040161054990610bfe565b60405180910390fd5b818361055e9190610c1e565b905092915050565b6000604051905090565b600080fd5b600080fd5b6000819050919050565b61058d8161057a565b811461059857600080fd5b50565b6000813590506105aa81610584565b92915050565b600080604083850312156105c7576105c6610570565b5b60006105d58582860161059b565b92505060206105e68582860161059b565b9150509250929050565b6105f98161057a565b82525050565b600060208201905061061460008301846105f0565b92915050565b600080fd5b6000601f19601f8301169050919050565b7f4e487b7100000000000000000000000000000000000000000000000000000000600052604160045260246000fd5b6106688261061f565b810181811067ffffffffffffffff8211171561068757610686610630565b5b80604052505050565b600061069a610566565b90506106a6828261065f565b919050565b600067ffffffffffffffff8211156106c6576106c5610630565b5b602082029050602081019050919050565b600080fd5b60006106ef6106ea846106ab565b610690565b90508083825260208201905060208402830185811115610712576107116106d7565b5b835b8181101561073b5780610727888261059b565b845260208401935050602081019050610714565b5050509392505050565b600082601f83011261075a5761075961061a565b5b813561076a8482602086016106dc565b91505092915050565b60006020828403121561078957610788610570565b5b600082013567ffffffffffffffff8111156107a7576107a6610575565b5b6107b384828501610745565b91505092915050565b6000819050919050565b6107cf816107bc565b82525050565b60006020820190506107ea60008301846107c6565b92915050565b7f4e487b7100000000000000000000000000000000000000000000000000000000600052601160045260246000fd5b600061082a8261057a565b91506108358361057a565b9250827f7fffffffffffffffffffffffffffffffffffffffffffffffffffffffffffffff0482116000841360008413161615610874576108736107f0565b5b817f800000000000000000000000000000000000000000000000000000000000000005831260008412600084131616156108b1576108b06107f0565b5b827f800000000000000000000000000000000000000000000000000000000000000005821260008413600084121616156108ee576108ed6107f0565b5b827f7fffffffffffffffffffffffffffffffffffffffffffffffffffffffffffffff058212600084126000841216161561092b5761092a6107f0565b5b828202905092915050565b600082825260208201905092915050565b7f456d707479206172726179206973206e6f742076616c69640000000000000000600082015250565b600061097d601883610936565b915061098882610947565b602082019050919050565b600060208201905081810360008301526109ac81610970565b9050919050565b7f4e487b7100000000000000000000000000000000000000000000000000000000600052603260045260246000fd5b60006109ed8261057a565b91506109f88361057a565b9250817f7fffffffffffffffffffffffffffffffffffffffffffffffffffffffffffffff03831360008312151615610a3357610a326107f0565b5b817f8000000000000000000000000000000000000000000000000000000000000000038312600083121615610a6b57610a6a6107f0565b5b828201905092915050565b6000610a81826107bc565b91507fffffffffffffffffffffffffffffffffffffffffffffffffffffffffffffffff8203610ab357610ab26107f0565b5b600182019050919050565b6000610ac98261057a565b9150610ad48361057a565b9250827f800000000000000000000000000000000000000000000000000000000000000001821260008412151615610b0f57610b0e6107f0565b5b827f7fffffffffffffffffffffffffffffffffffffffffffffffffffffffffffffff018213600084121615610b4757610b466107f0565b5b828203905092915050565b7f4e487b7100000000000000000000000000000000000000000000000000000000600052601260045260246000fd5b6000610b8c826107bc565b9150610b97836107bc565b925082610ba757610ba6610b52565b5b828204905092915050565b7f446976696465206279207a65726f000000000000000000000000000000000000600082015250565b6000610be8600e83610936565b9150610bf382610bb2565b602082019050919050565b60006020820190508181036000830152610c1781610bdb565b9050919050565b6000610c298261057a565b9150610c348361057a565b925082610c4457610c43610b52565b5b600160000383147f800000000000000000000000000000000000000000000000000000000000000083141615610c7d57610c7c6107f0565b5b82820590509291505056fea2646970667358221220936d787080e2d9840bc31b0c1585fde01a708a9ae6a0a7f0e370319ef544a6cb64736f6c634300080d0033",
  "immutableReferences": {},
  "source": "// SPDX-License-Identifier: MIT\npragma solidity >=0.4.22 <0.9.0;\n\ncontract BasicMath {\n    function add(int256 x, int256 y) public pure returns (int256) {\n        return x + y;\n    }\n\n    function subtract(int256 x, int256 y) public pure returns (int256) {\n        return x - y;\n    }\n\n    function divide(int256 x, int256 y) public pure returns (int256) {\n        require(y != 0, \"Divide by zero\");\n        return x / y;\n    }\n\n    function multiply(int256 x, int256 y) public pure returns (int256) {\n        return x * y;\n    }\n\n    function sum(int256[] memory data) public pure returns (int256) {\n        require(data.length > 0, \"Empty array is not valid\");\n        int256 sumary = data[0];\n        for (uint256 i = 1; i < data.length; i++) {\n            sumary += data[i];\n        }\n        return sumary;\n    }\n\n    function min(int256[] memory data) public pure returns (int256) {\n        require(data.length > 0, \"Empty array is not valid\");\n        int256 _min = data[0];\n        for (uint256 i = 1; i < data.length; i++) {\n            if (data[i] < _min) {\n                _min = data[i];\n            }\n        }\n        return _min;\n    }\n\n    function max(int256[] memory data) public pure returns (int256) {\n        require(data.length > 0, \"Empty array is not valid\");\n        int256 _max = data[0];\n        for (uint256 i = 1; i < data.length; i++) {\n            if (data[i] > _max) {\n                _max = data[i];\n            }\n        }\n        return _max;\n    }\n\n    function mean(int256[] memory data) public pure returns (uint256) {\n        require(data.length > 0, \"Empty array is not valid\");\n        return uint256(sum(data)) / data.length;\n    }\n}\n",
  "sourcePath": "C:\\Users\\Hp\\dev\\learning\\jquery-learning\\solidity-tutorial\\contracts\\BasicMath.sol",
  "compiler": {
    "name": "solc",
    "version": "0.8.13+commit.abaa5c0e.Emscripten.clang"
  },
  "schemaVersion": "3.4.11",
  "updatedAt": "2023-02-21T04:21:31.389Z",
  "networkType": "ethereum",
  "devdoc": {
    "kind": "dev",
    "methods": {},
    "version": 1
  },
  "userdoc": {
    "kind": "user",
    "methods": {},
    "version": 1
  }
}