{
  "contractName": "BasicMath",
  "abi": [
    {
      "inputs": [
        {
          "internalType": "int256",
          "name": "x",
          "type": "int256"
        },
        {
          "internalType": "int256",
          "name": "y",
          "type": "int256"
        }
      ],
      "name": "add",
      "outputs": [
        {
          "internalType": "int256",
          "name": "",
          "type": "int256"
        }
      ],
      "stateMutability": "pure",
      "type": "function",
      "constant": true
    },
    {
      "inputs": [
        {
          "internalType": "int256",
          "name": "x",
          "type": "int256"
        },
        {
          "internalType": "int256",
          "name": "y",
          "type": "int256"
        }
      ],
      "name": "subtract",
      "outputs": [
        {
          "internalType": "int256",
          "name": "",
          "type": "int256"
        }
      ],
      "stateMutability": "pure",
      "type": "function",
      "constant": true
    },
    {
      "inputs": [
        {
          "internalType": "int256",
          "name": "x",
          "type": "int256"
        },
        {
          "internalType": "int256",
          "name": "y",
          "type": "int256"
        }
      ],
      "name": "divide",
      "outputs": [
        {
          "internalType": "int256",
          "name": "",
          "type": "int256"
        }
      ],
      "stateMutability": "pure",
      "type": "function",
      "constant": true
    },
    {
      "inputs": [
        {
          "internalType": "int256",
          "name": "x",
          "type": "int256"
        },
        {
          "internalType": "int256",
          "name": "y",
          "type": "int256"
        }
      ],
      "name": "multiply",
      "outputs": [
        {
          "internalType": "int256",
          "name": "",
          "type": "int256"
        }
      ],
      "stateMutability": "pure",
      "type": "function",
      "constant": true
    }
  ],
  "bytecode": "0x608060405234801561001057600080fd5b5061060a806100206000396000f3fe608060405234801561001057600080fd5b506004361061004c5760003560e01c80633c4308a814610051578063a5f3c23b14610081578063b93ea812146100b1578063f5984236146100e1575b600080fd5b61006b600480360381019061006691906101e6565b610111565b6040516100789190610235565b60405180910390f35b61009b600480360381019061009691906101e6565b610127565b6040516100a89190610235565b60405180910390f35b6100cb60048036038101906100c691906101e6565b61013d565b6040516100d89190610235565b60405180910390f35b6100fb60048036038101906100f691906101e6565b610153565b6040516101089190610235565b60405180910390f35b6000818361011f919061027f565b905092915050565b600081836101359190610396565b905092915050565b6000818361014b919061042a565b905092915050565b6000808203610197576040517f08c379a000000000000000000000000000000000000000000000000000000000815260040161018e9061051b565b60405180910390fd5b81836101a3919061056a565b905092915050565b600080fd5b6000819050919050565b6101c3816101b0565b81146101ce57600080fd5b50565b6000813590506101e0816101ba565b92915050565b600080604083850312156101fd576101fc6101ab565b5b600061020b858286016101d1565b925050602061021c858286016101d1565b9150509250929050565b61022f816101b0565b82525050565b600060208201905061024a6000830184610226565b92915050565b7f4e487b7100000000000000000000000000000000000000000000000000000000600052601160045260246000fd5b600061028a826101b0565b9150610295836101b0565b9250827f7fffffffffffffffffffffffffffffffffffffffffffffffffffffffffffffff04821160008413600084131616156102d4576102d3610250565b5b817f8000000000000000000000000000000000000000000000000000000000000000058312600084126000841316161561031157610310610250565b5b827f8000000000000000000000000000000000000000000000000000000000000000058212600084136000841216161561034e5761034d610250565b5b827f7fffffffffffffffffffffffffffffffffffffffffffffffffffffffffffffff058212600084126000841216161561038b5761038a610250565b5b828202905092915050565b60006103a1826101b0565b91506103ac836101b0565b9250817f7fffffffffffffffffffffffffffffffffffffffffffffffffffffffffffffff038313600083121516156103e7576103e6610250565b5b817f800000000000000000000000000000000000000000000000000000000000000003831260008312161561041f5761041e610250565b5b828201905092915050565b6000610435826101b0565b9150610440836101b0565b9250827f80000000000000000000000000000000000000000000000000000000000000000182126000841215161561047b5761047a610250565b5b827f7fffffffffffffffffffffffffffffffffffffffffffffffffffffffffffffff0182136000841216156104b3576104b2610250565b5b828203905092915050565b600082825260208201905092915050565b7f446976696465206279207a65726f000000000000000000000000000000000000600082015250565b6000610505600e836104be565b9150610510826104cf565b602082019050919050565b60006020820190508181036000830152610534816104f8565b9050919050565b7f4e487b7100000000000000000000000000000000000000000000000000000000600052601260045260246000fd5b6000610575826101b0565b9150610580836101b0565b9250826105905761058f61053b565b5b600160000383147f8000000000000000000000000000000000000000000000000000000000000000831416156105c9576105c8610250565b5b82820590509291505056fea26469706673582212205b6830f713fb32bd7fc8e8ee9a1f7205f4c0e22d8bb4138996080ed933a7ef7864736f6c634300080d0033",
  "immutableReferences": {},
  "source": "// SPDX-License-Identifier: MIT\npragma solidity >=0.4.22 <0.9.0;\n\ncontract BasicMath {\n    function add(int256 x, int256 y) public pure returns (int256) {\n        return x + y;\n    }\n\n    function subtract(int256 x, int256 y) public pure returns (int256) {\n        return x - y;\n    }\n\n    function divide(int256 x, int256 y) public pure returns (int256) {\n        require(y != 0, \"Divide by zero\");\n        return x / y;\n    }\n\n    function multiply(int256 x, int256 y) public pure returns (int256) {\n        return x * y;\n    }\n}\n",
  "sourcePath": "C:\\Users\\Hp\\dev\\learning\\jquery-learning\\solidity-tutorial\\contracts\\BasicMath.sol",
  "compiler": {
    "name": "solc",
    "version": "0.8.13+commit.abaa5c0e.Emscripten.clang"
  },
  "schemaVersion": "3.4.11",
  "updatedAt": "2023-02-13T07:40:50.148Z",
  "networkType": "ethereum",
  "devdoc": {
    "kind": "dev",
    "methods": {},
    "version": 1
  },
  "userdoc": {
    "kind": "user",
    "methods": {},
    "version": 1
  }
}