{
  "contractName": "BasicMath",
  "abi": [
    {
      "inputs": [
        {
          "internalType": "int256",
          "name": "x",
          "type": "int256"
        },
        {
          "internalType": "int256",
          "name": "y",
          "type": "int256"
        }
      ],
      "name": "add",
      "outputs": [
        {
          "internalType": "int256",
          "name": "",
          "type": "int256"
        }
      ],
      "stateMutability": "pure",
      "type": "function"
    },
    {
      "inputs": [
        {
          "internalType": "int256",
          "name": "x",
          "type": "int256"
        },
        {
          "internalType": "int256",
          "name": "y",
          "type": "int256"
        }
      ],
      "name": "subtract",
      "outputs": [
        {
          "internalType": "int256",
          "name": "",
          "type": "int256"
        }
      ],
      "stateMutability": "pure",
      "type": "function"
    },
    {
      "inputs": [
        {
          "internalType": "int256",
          "name": "x",
          "type": "int256"
        },
        {
          "internalType": "int256",
          "name": "y",
          "type": "int256"
        }
      ],
      "name": "divide",
      "outputs": [
        {
          "internalType": "int256",
          "name": "",
          "type": "int256"
        }
      ],
      "stateMutability": "pure",
      "type": "function"
    },
    {
      "inputs": [
        {
          "internalType": "int256",
          "name": "x",
          "type": "int256"
        },
        {
          "internalType": "int256",
          "name": "y",
          "type": "int256"
        }
      ],
      "name": "multiply",
      "outputs": [
        {
          "internalType": "int256",
          "name": "",
          "type": "int256"
        }
      ],
      "stateMutability": "pure",
      "type": "function"
    }
  ],
  "bytecode": "0x608060405234801561001057600080fd5b5061054b806100206000396000f3fe608060405234801561001057600080fd5b506004361061004c5760003560e01c80633c4308a814610051578063a5f3c23b14610081578063b93ea812146100b1578063f5984236146100e1575b600080fd5b61006b600480360381019061006691906101a4565b610111565b60405161007891906101f3565b60405180910390f35b61009b600480360381019061009691906101a4565b610127565b6040516100a891906101f3565b60405180910390f35b6100cb60048036038101906100c691906101a4565b61013d565b6040516100d891906101f3565b60405180910390f35b6100fb60048036038101906100f691906101a4565b610153565b60405161010891906101f3565b60405180910390f35b6000818361011f919061023d565b905092915050565b600081836101359190610354565b905092915050565b6000818361014b91906103e8565b905092915050565b6000818361016191906104ab565b905092915050565b600080fd5b6000819050919050565b6101818161016e565b811461018c57600080fd5b50565b60008135905061019e81610178565b92915050565b600080604083850312156101bb576101ba610169565b5b60006101c98582860161018f565b92505060206101da8582860161018f565b9150509250929050565b6101ed8161016e565b82525050565b600060208201905061020860008301846101e4565b92915050565b7f4e487b7100000000000000000000000000000000000000000000000000000000600052601160045260246000fd5b60006102488261016e565b91506102538361016e565b9250827f7fffffffffffffffffffffffffffffffffffffffffffffffffffffffffffffff04821160008413600084131616156102925761029161020e565b5b817f800000000000000000000000000000000000000000000000000000000000000005831260008412600084131616156102cf576102ce61020e565b5b827f8000000000000000000000000000000000000000000000000000000000000000058212600084136000841216161561030c5761030b61020e565b5b827f7fffffffffffffffffffffffffffffffffffffffffffffffffffffffffffffff05821260008412600084121616156103495761034861020e565b5b828202905092915050565b600061035f8261016e565b915061036a8361016e565b9250817f7fffffffffffffffffffffffffffffffffffffffffffffffffffffffffffffff038313600083121516156103a5576103a461020e565b5b817f80000000000000000000000000000000000000000000000000000000000000000383126000831216156103dd576103dc61020e565b5b828201905092915050565b60006103f38261016e565b91506103fe8361016e565b9250827f8000000000000000000000000000000000000000000000000000000000000000018212600084121516156104395761043861020e565b5b827f7fffffffffffffffffffffffffffffffffffffffffffffffffffffffffffffff0182136000841216156104715761047061020e565b5b828203905092915050565b7f4e487b7100000000000000000000000000000000000000000000000000000000600052601260045260246000fd5b60006104b68261016e565b91506104c18361016e565b9250826104d1576104d061047c565b5b600160000383147f80000000000000000000000000000000000000000000000000000000000000008314161561050a5761050961020e565b5b82820590509291505056fea2646970667358221220a26225108cd2b317049c9a8c1366bb88a1b24b3e92e556e420419e0acc905de164736f6c634300080d0033",
  "immutableReferences": {},
  "source": "// SPDX-License-Identifier: MIT\npragma solidity >=0.4.22 <0.9.0;\n\ncontract BasicMath {\n    function add(int256 x, int256 y) public pure returns (int256) {\n        return x + y;\n    }\n\n    function subtract(int256 x, int256 y) public pure returns (int256) {\n        return x - y;\n    }\n\n    function divide(int256 x, int256 y) public pure returns (int256) {\n        // require(y != 0, \"Divide by zero\");\n        return x / y;\n    }\n\n    function multiply(int256 x, int256 y) public pure returns (int256) {\n        return x * y;\n    }\n}\n",
  "sourcePath": "C:\\Users\\Hp\\dev\\learning\\jquery-learning\\solidity-tutorial\\contracts\\BasicMath.sol",
  "compiler": {
    "name": "solc",
    "version": "0.8.13+commit.abaa5c0e.Emscripten.clang"
  },
  "schemaVersion": "3.4.11",
  "updatedAt": "2023-02-07T04:02:54.179Z",
  "devdoc": {
    "kind": "dev",
    "methods": {},
    "version": 1
  },
  "userdoc": {
    "kind": "user",
    "methods": {},
    "version": 1
  }
}