{
  "contractName": "MyAuction",
  "abi": [
    {
      "inputs": [
        {
          "internalType": "string",
          "name": "brand",
          "type": "string"
        },
        {
          "internalType": "string",
          "name": "serial",
          "type": "string"
        },
        {
          "internalType": "uint256",
          "name": "period",
          "type": "uint256"
        }
      ],
      "stateMutability": "nonpayable",
      "type": "constructor"
    },
    {
      "inputs": [],
      "name": "STATE",
      "outputs": [
        {
          "internalType": "enum Auction.AuctionState",
          "name": "",
          "type": "uint8"
        }
      ],
      "stateMutability": "view",
      "type": "function",
      "constant": true
    },
    {
      "inputs": [],
      "name": "auctionEnd",
      "outputs": [
        {
          "internalType": "uint256",
          "name": "",
          "type": "uint256"
        }
      ],
      "stateMutability": "view",
      "type": "function",
      "constant": true
    },
    {
      "inputs": [],
      "name": "auctionOwner",
      "outputs": [
        {
          "internalType": "address payable",
          "name": "",
          "type": "address"
        }
      ],
      "stateMutability": "view",
      "type": "function",
      "constant": true
    },
    {
      "inputs": [],
      "name": "auctionStart",
      "outputs": [
        {
          "internalType": "uint256",
          "name": "",
          "type": "uint256"
        }
      ],
      "stateMutability": "view",
      "type": "function",
      "constant": true
    },
    {
      "inputs": [],
      "name": "highestBid",
      "outputs": [
        {
          "internalType": "uint256",
          "name": "",
          "type": "uint256"
        }
      ],
      "stateMutability": "view",
      "type": "function",
      "constant": true
    },
    {
      "inputs": [],
      "name": "highestBidder",
      "outputs": [
        {
          "internalType": "address",
          "name": "",
          "type": "address"
        }
      ],
      "stateMutability": "view",
      "type": "function",
      "constant": true
    },
    {
      "inputs": [],
      "name": "myProduct",
      "outputs": [
        {
          "internalType": "string",
          "name": "Brand",
          "type": "string"
        },
        {
          "internalType": "string",
          "name": "SerialNum",
          "type": "string"
        }
      ],
      "stateMutability": "view",
      "type": "function",
      "constant": true
    },
    {
      "inputs": [],
      "name": "cancelAuction",
      "outputs": [
        {
          "internalType": "bool",
          "name": "",
          "type": "bool"
        }
      ],
      "stateMutability": "nonpayable",
      "type": "function"
    },
    {
      "inputs": [],
      "name": "endAuction",
      "outputs": [
        {
          "internalType": "bool",
          "name": "",
          "type": "bool"
        }
      ],
      "stateMutability": "nonpayable",
      "type": "function"
    },
    {
      "inputs": [],
      "name": "bid",
      "outputs": [
        {
          "internalType": "bool",
          "name": "",
          "type": "bool"
        }
      ],
      "stateMutability": "nonpayable",
      "type": "function"
    },
    {
      "inputs": [],
      "name": "getStatus",
      "outputs": [
        {
          "internalType": "int256",
          "name": "",
          "type": "int256"
        }
      ],
      "stateMutability": "nonpayable",
      "type": "function"
    },
    {
      "inputs": [],
      "name": "getProductInfo",
      "outputs": [
        {
          "internalType": "string",
          "name": "",
          "type": "string"
        },
        {
          "internalType": "string",
          "name": "",
          "type": "string"
        }
      ],
      "stateMutability": "view",
      "type": "function",
      "constant": true
    },
    {
      "inputs": [],
      "name": "withdraw",
      "outputs": [
        {
          "internalType": "bool",
          "name": "",
          "type": "bool"
        }
      ],
      "stateMutability": "nonpayable",
      "type": "function"
    },
    {
      "inputs": [
        {
          "internalType": "address",
          "name": "bidder",
          "type": "address"
        }
      ],
      "name": "getMyBid",
      "outputs": [
        {
          "internalType": "uint256",
          "name": "",
          "type": "uint256"
        }
      ],
      "stateMutability": "view",
      "type": "function",
      "constant": true
    }
  ],
  "bytecode": "0x60806040523480156200001157600080fd5b5060405162000fe938038062000fe98339818101604052810190620000379190620003ba565b336000806101000a81548173ffffffffffffffffffffffffffffffffffffffff021916908373ffffffffffffffffffffffffffffffffffffffff16021790555042600181905550610e10816200008e919062000483565b6001546200009d9190620004e4565b6002819055506000600460146101000a81548160ff02191690836003811115620000cc57620000cb62000541565b5b0217905550604051806040016040528084815260200183815250600560008201518160000190805190602001906200010692919062000132565b5060208201518160010190805190602001906200012592919062000132565b50905050505050620005d4565b82805462000140906200059f565b90600052602060002090601f016020900481019282620001645760008555620001b0565b82601f106200017f57805160ff1916838001178555620001b0565b82800160010185558215620001b0579182015b82811115620001af57825182559160200191906001019062000192565b5b509050620001bf9190620001c3565b5090565b5b80821115620001de576000816000905550600101620001c4565b5090565b6000604051905090565b600080fd5b600080fd5b600080fd5b600080fd5b6000601f19601f8301169050919050565b7f4e487b7100000000000000000000000000000000000000000000000000000000600052604160045260246000fd5b6200024b8262000200565b810181811067ffffffffffffffff821117156200026d576200026c62000211565b5b80604052505050565b600062000282620001e2565b905062000290828262000240565b919050565b600067ffffffffffffffff821115620002b357620002b262000211565b5b620002be8262000200565b9050602081019050919050565b60005b83811015620002eb578082015181840152602081019050620002ce565b83811115620002fb576000848401525b50505050565b600062000318620003128462000295565b62000276565b905082815260208101848484011115620003375762000336620001fb565b5b62000344848285620002cb565b509392505050565b600082601f830112620003645762000363620001f6565b5b81516200037684826020860162000301565b91505092915050565b6000819050919050565b62000394816200037f565b8114620003a057600080fd5b50565b600081519050620003b48162000389565b92915050565b600080600060608486031215620003d657620003d5620001ec565b5b600084015167ffffffffffffffff811115620003f757620003f6620001f1565b5b62000405868287016200034c565b935050602084015167ffffffffffffffff811115620004295762000428620001f1565b5b62000437868287016200034c565b92505060406200044a86828701620003a3565b9150509250925092565b7f4e487b7100000000000000000000000000000000000000000000000000000000600052601160045260246000fd5b600062000490826200037f565b91506200049d836200037f565b9250817fffffffffffffffffffffffffffffffffffffffffffffffffffffffffffffffff0483118215151615620004d957620004d862000454565b5b828202905092915050565b6000620004f1826200037f565b9150620004fe836200037f565b9250827fffffffffffffffffffffffffffffffffffffffffffffffffffffffffffffffff0382111562000536576200053562000454565b5b828201905092915050565b7f4e487b7100000000000000000000000000000000000000000000000000000000600052602160045260246000fd5b7f4e487b7100000000000000000000000000000000000000000000000000000000600052602260045260246000fd5b60006002820490506001821680620005b857607f821691505b602082108103620005ce57620005cd62000570565b5b50919050565b610a0580620005e46000396000f3fe608060405234801561001057600080fd5b50600436106100ea5760003560e01c806391f901571161008c578063d3924aaf11610066578063d3924aaf1461022e578063d57bde791461024c578063fc72a3851461026a578063fe67a54b14610289576100ea565b806391f90157146101d3578063bd358967146101f1578063c486456c14610210576100ea565b80634e69d560116100c85780634e69d560146101495780634f245ef7146101675780635337bde0146101855780638fa8b790146101b5576100ea565b80631998aeef146100ef5780632a24f46c1461010d5780633ccfd60b1461012b575b600080fd5b6100f76102a7565b6040516101049190610694565b60405180910390f35b6101156102ac565b60405161012291906106c8565b60405180910390f35b6101336102b2565b6040516101409190610694565b60405180910390f35b6101516102b7565b60405161015e91906106fc565b60405180910390f35b61016f6102bc565b60405161017c91906106c8565b60405180910390f35b61019f600480360381019061019a919061077a565b6102c2565b6040516101ac91906106c8565b60405180910390f35b6101bd61030b565b6040516101ca9190610694565b60405180910390f35b6101db610369565b6040516101e891906107b6565b60405180910390f35b6101f961038f565b60405161020792919061086a565b60405180910390f35b6102186104b1565b6040516102259190610918565b60405180910390f35b6102366104c4565b6040516102439190610954565b60405180910390f35b6102546104e8565b60405161026191906106c8565b60405180910390f35b6102726104ee565b60405161028092919061086a565b60405180910390f35b61029161061b565b60405161029e9190610694565b60405180910390f35b600090565b60025481565b600090565b600090565b60015481565b6000600760008373ffffffffffffffffffffffffffffffffffffffff1673ffffffffffffffffffffffffffffffffffffffff168152602001908152602001600020549050919050565b60008060009054906101000a900473ffffffffffffffffffffffffffffffffffffffff1673ffffffffffffffffffffffffffffffffffffffff163373ffffffffffffffffffffffffffffffffffffffff161461036657600080fd5b90565b600460009054906101000a900473ffffffffffffffffffffffffffffffffffffffff1681565b60058060000180546103a09061099e565b80601f01602080910402602001604051908101604052809291908181526020018280546103cc9061099e565b80156104195780601f106103ee57610100808354040283529160200191610419565b820191906000526020600020905b8154815290600101906020018083116103fc57829003601f168201915b50505050509080600101805461042e9061099e565b80601f016020809104026020016040519081016040528092919081815260200182805461045a9061099e565b80156104a75780601f1061047c576101008083540402835291602001916104a7565b820191906000526020600020905b81548152906001019060200180831161048a57829003601f168201915b5050505050905082565b600460149054906101000a900460ff1681565b60008054906101000a900473ffffffffffffffffffffffffffffffffffffffff1681565b60035481565b606080600560000160056001018180546105079061099e565b80601f01602080910402602001604051908101604052809291908181526020018280546105339061099e565b80156105805780601f1061055557610100808354040283529160200191610580565b820191906000526020600020905b81548152906001019060200180831161056357829003601f168201915b505050505091508080546105939061099e565b80601f01602080910402602001604051908101604052809291908181526020018280546105bf9061099e565b801561060c5780601f106105e15761010080835404028352916020019161060c565b820191906000526020600020905b8154815290600101906020018083116105ef57829003601f168201915b50505050509050915091509091565b60008060009054906101000a900473ffffffffffffffffffffffffffffffffffffffff1673ffffffffffffffffffffffffffffffffffffffff163373ffffffffffffffffffffffffffffffffffffffff161461067657600080fd5b90565b60008115159050919050565b61068e81610679565b82525050565b60006020820190506106a96000830184610685565b92915050565b6000819050919050565b6106c2816106af565b82525050565b60006020820190506106dd60008301846106b9565b92915050565b6000819050919050565b6106f6816106e3565b82525050565b600060208201905061071160008301846106ed565b92915050565b600080fd5b600073ffffffffffffffffffffffffffffffffffffffff82169050919050565b60006107478261071c565b9050919050565b6107578161073c565b811461076257600080fd5b50565b6000813590506107748161074e565b92915050565b6000602082840312156107905761078f610717565b5b600061079e84828501610765565b91505092915050565b6107b08161073c565b82525050565b60006020820190506107cb60008301846107a7565b92915050565b600081519050919050565b600082825260208201905092915050565b60005b8381101561080b5780820151818401526020810190506107f0565b8381111561081a576000848401525b50505050565b6000601f19601f8301169050919050565b600061083c826107d1565b61084681856107dc565b93506108568185602086016107ed565b61085f81610820565b840191505092915050565b600060408201905081810360008301526108848185610831565b905081810360208301526108988184610831565b90509392505050565b7f4e487b7100000000000000000000000000000000000000000000000000000000600052602160045260246000fd5b600481106108e1576108e06108a1565b5b50565b60008190506108f2826108d0565b919050565b6000610902826108e4565b9050919050565b610912816108f7565b82525050565b600060208201905061092d6000830184610909565b92915050565b600061093e8261071c565b9050919050565b61094e81610933565b82525050565b60006020820190506109696000830184610945565b92915050565b7f4e487b7100000000000000000000000000000000000000000000000000000000600052602260045260246000fd5b600060028204905060018216806109b657607f821691505b6020821081036109c9576109c861096f565b5b5091905056fea2646970667358221220a7c10adf23bd52196ec249019dc51fd511d46af271e3da69417627a0efe5079464736f6c634300080d0033",
  "immutableReferences": {},
  "source": "// SPDX-License-Identifier: MIT\r\npragma solidity >=0.4.22 <0.9.0;\r\nimport \"./Auction.sol\";\r\n\r\ncontract MyAuction is Auction {\r\n    Product public myProduct;\r\n    mapping (address => uint) bids;\r\n    address [] bidders;\r\n\r\n    constructor(string memory brand, string memory serial, uint period) {\r\n        auctionOwner = payable(msg.sender); // address => address payable\r\n        auctionStart = block.timestamp;\r\n        auctionEnd = auctionStart + period * 1 hours;\r\n        STATE = AuctionState.STARTED;\r\n        myProduct = Product(brand, serial);\r\n    }\r\n\r\n    modifier onlyOwner {\r\n        require(msg.sender == auctionOwner);\r\n        _;\r\n    }\r\n\r\n    modifier onGoingAuction {\r\n        require(STATE == AuctionState.STARTED);\r\n        _;\r\n    }\r\n\r\n    function cancelAuction() public virtual override onlyOwner returns (bool) {}\r\n\r\n    function endAuction() public virtual override onlyOwner returns (bool) {}\r\n\r\n    function bid() public virtual override returns (bool) {}\r\n\r\n    function getStatus() public virtual override returns (int256) {}\r\n\r\n    function getProductInfo()\r\n        public\r\n        view\r\n        override\r\n        returns (string memory, string memory)\r\n    {\r\n        return (myProduct.Brand, myProduct.SerialNum);\r\n    }\r\n\r\n    function withdraw() public virtual override returns (bool) {}\r\n\r\n    function getMyBid(\r\n        address bidder\r\n    ) public view override returns (uint256) {\r\n        return bids[bidder];\r\n    }\r\n}\r\n",
  "sourcePath": "C:\\Users\\Hp\\dev\\learning\\jquery-learning\\solidity-tutorial\\contracts\\MyAuction.sol",
  "compiler": {
    "name": "solc",
    "version": "0.8.13+commit.abaa5c0e.Emscripten.clang"
  },
  "schemaVersion": "3.4.11",
  "updatedAt": "2023-02-27T07:53:31.517Z",
  "networkType": "ethereum",
  "devdoc": {
    "kind": "dev",
    "methods": {},
    "version": 1
  },
  "userdoc": {
    "kind": "user",
    "methods": {},
    "version": 1
  }
}