{
  "contractName": "MyAuction",
  "abi": [
    {
      "inputs": [
        {
          "internalType": "string",
          "name": "brand",
          "type": "string"
        },
        {
          "internalType": "string",
          "name": "serial",
          "type": "string"
        },
        {
          "internalType": "uint256",
          "name": "period",
          "type": "uint256"
        }
      ],
      "stateMutability": "nonpayable",
      "type": "constructor"
    },
    {
      "anonymous": false,
      "inputs": [
        {
          "indexed": false,
          "internalType": "uint256",
          "name": "timestamp",
          "type": "uint256"
        }
      ],
      "name": "CancelEvent",
      "type": "event"
    },
    {
      "anonymous": false,
      "inputs": [
        {
          "indexed": false,
          "internalType": "address",
          "name": "highestBidder",
          "type": "address"
        },
        {
          "indexed": false,
          "internalType": "uint256",
          "name": "highestBid",
          "type": "uint256"
        },
        {
          "indexed": false,
          "internalType": "uint256",
          "name": "timestamp",
          "type": "uint256"
        }
      ],
      "name": "EndEvent",
      "type": "event"
    },
    {
      "anonymous": false,
      "inputs": [
        {
          "indexed": false,
          "internalType": "address",
          "name": "bidder",
          "type": "address"
        },
        {
          "indexed": false,
          "internalType": "uint256",
          "name": "amount",
          "type": "uint256"
        },
        {
          "indexed": false,
          "internalType": "uint256",
          "name": "timestamp",
          "type": "uint256"
        }
      ],
      "name": "WithdrawEvent",
      "type": "event"
    },
    {
      "inputs": [],
      "name": "STATE",
      "outputs": [
        {
          "internalType": "enum Auction.AuctionState",
          "name": "",
          "type": "uint8"
        }
      ],
      "stateMutability": "view",
      "type": "function",
      "constant": true
    },
    {
      "inputs": [],
      "name": "auctionEnd",
      "outputs": [
        {
          "internalType": "uint256",
          "name": "",
          "type": "uint256"
        }
      ],
      "stateMutability": "view",
      "type": "function",
      "constant": true
    },
    {
      "inputs": [],
      "name": "auctionOwner",
      "outputs": [
        {
          "internalType": "address payable",
          "name": "",
          "type": "address"
        }
      ],
      "stateMutability": "view",
      "type": "function",
      "constant": true
    },
    {
      "inputs": [],
      "name": "auctionStart",
      "outputs": [
        {
          "internalType": "uint256",
          "name": "",
          "type": "uint256"
        }
      ],
      "stateMutability": "view",
      "type": "function",
      "constant": true
    },
    {
      "inputs": [],
      "name": "highestBid",
      "outputs": [
        {
          "internalType": "uint256",
          "name": "",
          "type": "uint256"
        }
      ],
      "stateMutability": "view",
      "type": "function",
      "constant": true
    },
    {
      "inputs": [],
      "name": "highestBidder",
      "outputs": [
        {
          "internalType": "address",
          "name": "",
          "type": "address"
        }
      ],
      "stateMutability": "view",
      "type": "function",
      "constant": true
    },
    {
      "inputs": [],
      "name": "myProduct",
      "outputs": [
        {
          "internalType": "string",
          "name": "Brand",
          "type": "string"
        },
        {
          "internalType": "string",
          "name": "SerialNum",
          "type": "string"
        }
      ],
      "stateMutability": "view",
      "type": "function",
      "constant": true
    },
    {
      "inputs": [],
      "name": "cancelAuction",
      "outputs": [
        {
          "internalType": "bool",
          "name": "",
          "type": "bool"
        }
      ],
      "stateMutability": "nonpayable",
      "type": "function"
    },
    {
      "inputs": [],
      "name": "endAuction",
      "outputs": [
        {
          "internalType": "bool",
          "name": "",
          "type": "bool"
        }
      ],
      "stateMutability": "nonpayable",
      "type": "function"
    },
    {
      "inputs": [],
      "name": "bid",
      "outputs": [
        {
          "internalType": "bool",
          "name": "",
          "type": "bool"
        }
      ],
      "stateMutability": "nonpayable",
      "type": "function"
    },
    {
      "inputs": [],
      "name": "getProductInfo",
      "outputs": [
        {
          "internalType": "string",
          "name": "",
          "type": "string"
        },
        {
          "internalType": "string",
          "name": "",
          "type": "string"
        }
      ],
      "stateMutability": "view",
      "type": "function",
      "constant": true
    },
    {
      "inputs": [],
      "name": "withdraw",
      "outputs": [
        {
          "internalType": "bool",
          "name": "",
          "type": "bool"
        }
      ],
      "stateMutability": "nonpayable",
      "type": "function"
    },
    {
      "inputs": [
        {
          "internalType": "address",
          "name": "bidder",
          "type": "address"
        }
      ],
      "name": "getMyBid",
      "outputs": [
        {
          "internalType": "uint256",
          "name": "",
          "type": "uint256"
        }
      ],
      "stateMutability": "view",
      "type": "function",
      "constant": true
    }
  ],
  "bytecode": "0x60806040523480156200001157600080fd5b50604051620014bb380380620014bb8339818101604052810190620000379190620003ba565b336000806101000a81548173ffffffffffffffffffffffffffffffffffffffff021916908373ffffffffffffffffffffffffffffffffffffffff16021790555042600181905550610e10816200008e919062000483565b6001546200009d9190620004e4565b6002819055506000600460146101000a81548160ff02191690836003811115620000cc57620000cb62000541565b5b0217905550604051806040016040528084815260200183815250600560008201518160000190805190602001906200010692919062000132565b5060208201518160010190805190602001906200012592919062000132565b50905050505050620005d4565b82805462000140906200059f565b90600052602060002090601f016020900481019282620001645760008555620001b0565b82601f106200017f57805160ff1916838001178555620001b0565b82800160010185558215620001b0579182015b82811115620001af57825182559160200191906001019062000192565b5b509050620001bf9190620001c3565b5090565b5b80821115620001de576000816000905550600101620001c4565b5090565b6000604051905090565b600080fd5b600080fd5b600080fd5b600080fd5b6000601f19601f8301169050919050565b7f4e487b7100000000000000000000000000000000000000000000000000000000600052604160045260246000fd5b6200024b8262000200565b810181811067ffffffffffffffff821117156200026d576200026c62000211565b5b80604052505050565b600062000282620001e2565b905062000290828262000240565b919050565b600067ffffffffffffffff821115620002b357620002b262000211565b5b620002be8262000200565b9050602081019050919050565b60005b83811015620002eb578082015181840152602081019050620002ce565b83811115620002fb576000848401525b50505050565b600062000318620003128462000295565b62000276565b905082815260208101848484011115620003375762000336620001fb565b5b62000344848285620002cb565b509392505050565b600082601f830112620003645762000363620001f6565b5b81516200037684826020860162000301565b91505092915050565b6000819050919050565b62000394816200037f565b8114620003a057600080fd5b50565b600081519050620003b48162000389565b92915050565b600080600060608486031215620003d657620003d5620001ec565b5b600084015167ffffffffffffffff811115620003f757620003f6620001f1565b5b62000405868287016200034c565b935050602084015167ffffffffffffffff811115620004295762000428620001f1565b5b62000437868287016200034c565b92505060406200044a86828701620003a3565b9150509250925092565b7f4e487b7100000000000000000000000000000000000000000000000000000000600052601160045260246000fd5b600062000490826200037f565b91506200049d836200037f565b9250817fffffffffffffffffffffffffffffffffffffffffffffffffffffffffffffffff0483118215151615620004d957620004d862000454565b5b828202905092915050565b6000620004f1826200037f565b9150620004fe836200037f565b9250827fffffffffffffffffffffffffffffffffffffffffffffffffffffffffffffffff0382111562000536576200053562000454565b5b828201905092915050565b7f4e487b7100000000000000000000000000000000000000000000000000000000600052602160045260246000fd5b7f4e487b7100000000000000000000000000000000000000000000000000000000600052602260045260246000fd5b60006002820490506001821680620005b857607f821691505b602082108103620005ce57620005cd62000570565b5b50919050565b610ed780620005e46000396000f3fe608060405234801561001057600080fd5b50600436106100cf5760003560e01c806391f901571161008c578063d3924aaf11610066578063d3924aaf146101f5578063d57bde7914610213578063fc72a38514610231578063fe67a54b14610250576100cf565b806391f901571461019a578063bd358967146101b8578063c486456c146101d7576100cf565b80631998aeef146100d45780632a24f46c146100f25780633ccfd60b146101105780634f245ef71461012e5780635337bde01461014c5780638fa8b7901461017c575b600080fd5b6100dc61026e565b6040516100e991906109d3565b60405180910390f35b6100fa610273565b6040516101079190610a07565b60405180910390f35b610118610279565b60405161012591906109d3565b60405180910390f35b610136610507565b6040516101439190610a07565b60405180910390f35b61016660048036038101906101619190610a85565b61050d565b6040516101739190610a07565b60405180910390f35b610184610556565b60405161019191906109d3565b60405180910390f35b6101a261061a565b6040516101af9190610ac1565b60405180910390f35b6101c0610640565b6040516101ce929190610b75565b60405180910390f35b6101df610762565b6040516101ec9190610c23565b60405180910390f35b6101fd610775565b60405161020a9190610c5f565b60405180910390f35b61021b610799565b6040516102289190610a07565b60405180910390f35b61023961079f565b604051610247929190610b75565b60405180910390f35b6102586108cc565b60405161026591906109d3565b60405180910390f35b600090565b60025481565b6000600460009054906101000a900473ffffffffffffffffffffffffffffffffffffffff1673ffffffffffffffffffffffffffffffffffffffff163373ffffffffffffffffffffffffffffffffffffffff160361030b576040517f08c379a000000000000000000000000000000000000000000000000000000000815260040161030290610cc6565b60405180910390fd5b6000600381111561031f5761031e610bac565b5b600460149054906101000a900460ff16600381111561034157610340610bac565b5b03610381576040517f08c379a000000000000000000000000000000000000000000000000000000000815260040161037890610d58565b60405180910390fd5b60038081111561039457610393610bac565b5b600460149054906101000a900460ff1660038111156103b6576103b5610bac565b5b036103f6576040517f08c379a00000000000000000000000000000000000000000000000000000000081526004016103ed90610dea565b60405180910390fd5b6000600760003373ffffffffffffffffffffffffffffffffffffffff1673ffffffffffffffffffffffffffffffffffffffff168152602001908152602001600020549050600760003373ffffffffffffffffffffffffffffffffffffffff1673ffffffffffffffffffffffffffffffffffffffff168152602001908152602001600020600090553373ffffffffffffffffffffffffffffffffffffffff166108fc829081150290604051600060405180830381858888f193505050501580156104c3573d6000803e3d6000fd5b507f5bb95829671915ece371da722f91d5371159095dcabf2f75cd6c53facb7e1bab3382426040516104f793929190610e0a565b60405180910390a1600191505090565b60015481565b6000600760008373ffffffffffffffffffffffffffffffffffffffff1673ffffffffffffffffffffffffffffffffffffffff168152602001908152602001600020549050919050565b60008060009054906101000a900473ffffffffffffffffffffffffffffffffffffffff1673ffffffffffffffffffffffffffffffffffffffff163373ffffffffffffffffffffffffffffffffffffffff16146105b157600080fd5b6001600460146101000a81548160ff021916908360038111156105d7576105d6610bac565b5b02179055507fe933406ce445ea24d84ca4529e514adc8926e62cdc8b5a67c568c9fd578f1a8a4260405161060b9190610a07565b60405180910390a16001905090565b600460009054906101000a900473ffffffffffffffffffffffffffffffffffffffff1681565b600580600001805461065190610e70565b80601f016020809104026020016040519081016040528092919081815260200182805461067d90610e70565b80156106ca5780601f1061069f576101008083540402835291602001916106ca565b820191906000526020600020905b8154815290600101906020018083116106ad57829003601f168201915b5050505050908060010180546106df90610e70565b80601f016020809104026020016040519081016040528092919081815260200182805461070b90610e70565b80156107585780601f1061072d57610100808354040283529160200191610758565b820191906000526020600020905b81548152906001019060200180831161073b57829003601f168201915b5050505050905082565b600460149054906101000a900460ff1681565b60008054906101000a900473ffffffffffffffffffffffffffffffffffffffff1681565b60035481565b606080600560000160056001018180546107b890610e70565b80601f01602080910402602001604051908101604052809291908181526020018280546107e490610e70565b80156108315780601f1061080657610100808354040283529160200191610831565b820191906000526020600020905b81548152906001019060200180831161081457829003601f168201915b5050505050915080805461084490610e70565b80601f016020809104026020016040519081016040528092919081815260200182805461087090610e70565b80156108bd5780601f10610892576101008083540402835291602001916108bd565b820191906000526020600020905b8154815290600101906020018083116108a057829003601f168201915b50505050509050915091509091565b60008060009054906101000a900473ffffffffffffffffffffffffffffffffffffffff1673ffffffffffffffffffffffffffffffffffffffff163373ffffffffffffffffffffffffffffffffffffffff161461092757600080fd5b6002600460146101000a81548160ff0219169083600381111561094d5761094c610bac565b5b02179055507fa924629d4099d6537de855ae6fb7a38e37a8d9717b2b51c33b8f6da2f20b82dd600460009054906101000a900473ffffffffffffffffffffffffffffffffffffffff16600354426040516109a993929190610e0a565b60405180910390a16001905090565b60008115159050919050565b6109cd816109b8565b82525050565b60006020820190506109e860008301846109c4565b92915050565b6000819050919050565b610a01816109ee565b82525050565b6000602082019050610a1c60008301846109f8565b92915050565b600080fd5b600073ffffffffffffffffffffffffffffffffffffffff82169050919050565b6000610a5282610a27565b9050919050565b610a6281610a47565b8114610a6d57600080fd5b50565b600081359050610a7f81610a59565b92915050565b600060208284031215610a9b57610a9a610a22565b5b6000610aa984828501610a70565b91505092915050565b610abb81610a47565b82525050565b6000602082019050610ad66000830184610ab2565b92915050565b600081519050919050565b600082825260208201905092915050565b60005b83811015610b16578082015181840152602081019050610afb565b83811115610b25576000848401525b50505050565b6000601f19601f8301169050919050565b6000610b4782610adc565b610b518185610ae7565b9350610b61818560208601610af8565b610b6a81610b2b565b840191505092915050565b60006040820190508181036000830152610b8f8185610b3c565b90508181036020830152610ba38184610b3c565b90509392505050565b7f4e487b7100000000000000000000000000000000000000000000000000000000600052602160045260246000fd5b60048110610bec57610beb610bac565b5b50565b6000819050610bfd82610bdb565b919050565b6000610c0d82610bef565b9050919050565b610c1d81610c02565b82525050565b6000602082019050610c386000830184610c14565b92915050565b6000610c4982610a27565b9050919050565b610c5981610c3e565b82525050565b6000602082019050610c746000830184610c50565b92915050565b7f4269642077696e6e65722063616e277420776974686472617700000000000000600082015250565b6000610cb0601983610ae7565b9150610cbb82610c7a565b602082019050919050565b60006020820190508181036000830152610cdf81610ca3565b9050919050565b7f43616e206e6f742077697468647261772066726f6d206f6e676f696e6720617560008201527f6374696f6e000000000000000000000000000000000000000000000000000000602082015250565b6000610d42602583610ae7565b9150610d4d82610ce6565b604082019050919050565b60006020820190508181036000830152610d7181610d35565b9050919050565b7f43616e206e6f742077697468647261772066726f6d2064657374726f7965642060008201527f636f6e7472616374000000000000000000000000000000000000000000000000602082015250565b6000610dd4602883610ae7565b9150610ddf82610d78565b604082019050919050565b60006020820190508181036000830152610e0381610dc7565b9050919050565b6000606082019050610e1f6000830186610ab2565b610e2c60208301856109f8565b610e3960408301846109f8565b949350505050565b7f4e487b7100000000000000000000000000000000000000000000000000000000600052602260045260246000fd5b60006002820490506001821680610e8857607f821691505b602082108103610e9b57610e9a610e41565b5b5091905056fea264697066735822122078f75e81ac30b02282b0565641b42dbecc85939b74f7a7f20832da28cbdabbae64736f6c634300080d0033",
  "immutableReferences": {},
  "source": "// SPDX-License-Identifier: MIT\r\npragma solidity >=0.4.22 <0.9.0;\r\nimport \"./Auction.sol\";\r\n\r\ncontract MyAuction is Auction {\r\n    Product public myProduct;\r\n    mapping (address => uint) bids;\r\n    address [] bidders;\r\n\r\n    constructor(string memory brand, string memory serial, uint period) {\r\n        auctionOwner = payable(msg.sender); // address => address payable\r\n        auctionStart = block.timestamp;\r\n        auctionEnd = auctionStart + period * 1 hours;\r\n        STATE = AuctionState.STARTED;\r\n        myProduct = Product(brand, serial);\r\n    }\r\n\r\n    modifier onlyOwner {\r\n        require(msg.sender == auctionOwner);\r\n        _;\r\n    }\r\n\r\n    modifier onGoingAuction {\r\n        require(STATE == AuctionState.STARTED);\r\n        _;\r\n    }\r\n\r\n    event CancelEvent(uint timestamp);\r\n    function cancelAuction() public override onlyOwner returns (bool) {\r\n        STATE = AuctionState.CANCELLED;\r\n        emit CancelEvent(block.timestamp);\r\n        return true;\r\n    }\r\n\r\n    event EndEvent(address highestBidder, uint highestBid, uint timestamp);\r\n    function endAuction() public virtual override onlyOwner returns (bool) {\r\n        STATE = AuctionState.ENDED;\r\n        emit EndEvent(highestBidder, highestBid, block.timestamp);\r\n        return true;\r\n\r\n    }\r\n\r\n    function bid() public virtual override returns (bool) {}\r\n\r\n    function getProductInfo()\r\n        public\r\n        view\r\n        override\r\n        returns (string memory, string memory)\r\n    {\r\n        return (myProduct.Brand, myProduct.SerialNum);\r\n    }\r\n\r\n    event WithdrawEvent(address bidder, uint amount, uint timestamp);\r\n    function withdraw() public override returns (bool) {\r\n        require(msg.sender != highestBidder , \"Bid winner can't withdraw\");\r\n        require(STATE != AuctionState.STARTED, \"Can not withdraw from ongoing auction\");\r\n        require(STATE != AuctionState.DESTRUCTED, \"Can not withdraw from destroyed contract\");\r\n        uint amount = bids[msg.sender];\r\n        delete bids[msg.sender];\r\n        payable(msg.sender).transfer(amount);\r\n        emit WithdrawEvent(msg.sender, amount, block.timestamp);\r\n        return true;\r\n    }\r\n\r\n    function getMyBid(\r\n        address bidder\r\n    ) public view override returns (uint256) {\r\n        return bids[bidder];\r\n    }\r\n}\r\n",
  "sourcePath": "C:\\Users\\Hp\\dev\\learning\\jquery-learning\\solidity-tutorial\\contracts\\MyAuction.sol",
  "compiler": {
    "name": "solc",
    "version": "0.8.13+commit.abaa5c0e.Emscripten.clang"
  },
  "schemaVersion": "3.4.11",
  "updatedAt": "2023-02-28T04:30:59.260Z",
  "networkType": "ethereum",
  "devdoc": {
    "kind": "dev",
    "methods": {},
    "version": 1
  },
  "userdoc": {
    "kind": "user",
    "methods": {},
    "version": 1
  }
}